{
  "transactions": [
    {
      "hash": "0xa2fa1357b284e63c517d86c3124e7300ba3089818af151fff912d87118f2fc54",
      "transactionType": "CREATE",
      "contractName": "MyNFTMarketV2",
      "contractAddress": "0x13736647e93dae2ee9c47b8c390a133e9788f76d",
      "function": null,
      "arguments": [
        "0xee36856865c6792ACE7310Bd10DDf80492922175",
        "0x334752232938E060755e2CeCe44D1664ca61d873"
      ],
      "transaction": {
        "from": "0xe249dfd432b37872c40c0511cc5a3ae13906f77a",
        "gas": "0x97745",
        "value": "0x0",
        "input": "0x60e060405234801561001057600080fd5b5060405161089138038061089183398101604081905261002f91610066565b6001600160a01b039182166080521660a0523360c052610099565b80516001600160a01b038116811461006157600080fd5b919050565b6000806040838503121561007957600080fd5b6100828361004a565b91506100906020840161004a565b90509250929050565b60805160a05160c0516107a66100eb60003960006101960152600081816101440152818161023801528181610311015281816103ee01526105760152600081816101e601526104e601526107a66000f3fe608060405234801561001057600080fd5b50600436106100935760003560e01c8063d06fcba811610066578063d06fcba81461013f578063d6febde81461017e578063f851a44014610191578063fa34d82f146101b8578063fc0c546a146101e157610093565b8063150b7a02146100ac57806350fd7367146100e9578063758f0e77146100fe5780637eab55141461012c575b604051633530deed60e11b815260040160405180910390fd5b6100cb6100ba3660046105ee565b630a85bd0160e11b95945050505050565b6040516001600160e01b031990911681526020015b60405180910390f35b6100fc6100f736600461068d565b610208565b005b61011e61010c3660046106af565b60006020819052908152604090205481565b6040519081526020016100e0565b6100fc61013a3660046106c8565b6102c7565b6101667f000000000000000000000000000000000000000000000000000000000000000081565b6040516001600160a01b0390911681526020016100e0565b6100fc61018c36600461068d565b61037f565b6101667f000000000000000000000000000000000000000000000000000000000000000081565b6101666101c63660046106af565b6001602052600090815260409020546001600160a01b031681565b6101667f000000000000000000000000000000000000000000000000000000000000000081565b604051635c46a7ef60e11b81523360048201523060248201526044810183905260806064820152600060848201527f00000000000000000000000000000000000000000000000000000000000000006001600160a01b03169063b88d4fde9060a401600060405180830381600087803b15801561028457600080fd5b505af1158015610298573d6000803e3d6000fd5b505050600092835250602082815260408084209290925560019052902080546001600160a01b03191633179055565b604051636fb510ad60e01b81526001600160a01b038781166004830152306024830152604482018790526064820186905260ff8516608483015260a4820184905260c482018390527f00000000000000000000000000000000000000000000000000000000000000001690636fb510ad9060e401600060405180830381600087803b15801561035557600080fd5b505af1158015610369573d6000803e3d6000fd5b505050506103778585610208565b505050505050565b6000828152602081905260409020548110156103ce5760405162461bcd60e51b81526020600482015260096024820152686c6f7720707269636560b81b60448201526064015b60405180910390fd5b6040516331a9108f60e11b81526004810183905230906001600160a01b037f00000000000000000000000000000000000000000000000000000000000000001690636352211e90602401602060405180830381865afa158015610435573d6000803e3d6000fd5b505050506040513d601f19601f82011682018060405250810190610459919061072a565b6001600160a01b03161461049f5760405162461bcd60e51b815260206004820152600d60248201526c185b1958591e481cd95b1b1959609a1b60448201526064016103c5565b60008281526001602090815260408083205491839052918290205491516323b872dd60e01b81523360048201526001600160a01b03918216602482015260448101929092527f000000000000000000000000000000000000000000000000000000000000000016906323b872dd906064016020604051808303816000875af115801561052f573d6000803e3d6000fd5b505050506040513d601f19601f82011682018060405250810190610553919061074e565b506040516323b872dd60e01b8152306004820152336024820152604481018390527f00000000000000000000000000000000000000000000000000000000000000006001600160a01b0316906323b872dd90606401600060405180830381600087803b1580156105c257600080fd5b505af1158015610377573d6000803e3d6000fd5b6001600160a01b03811681146105eb57600080fd5b50565b60008060008060006080868803121561060657600080fd5b8535610611816105d6565b94506020860135610621816105d6565b935060408601359250606086013567ffffffffffffffff8082111561064557600080fd5b818801915088601f83011261065957600080fd5b81358181111561066857600080fd5b89602082850101111561067a57600080fd5b9699959850939650602001949392505050565b600080604083850312156106a057600080fd5b50508035926020909101359150565b6000602082840312156106c157600080fd5b5035919050565b60008060008060008060c087890312156106e157600080fd5b86356106ec816105d6565b95506020870135945060408701359350606087013560ff8116811461071057600080fd5b9598949750929560808101359460a0909101359350915050565b60006020828403121561073c57600080fd5b8151610747816105d6565b9392505050565b60006020828403121561076057600080fd5b8151801515811461074757600080fdfea2646970667358221220a8a28745a458f6a2b2e58818bdfa72844f8da7fbcb72bb232b1323f2f70038c764736f6c63430008190033000000000000000000000000ee36856865c6792ace7310bd10ddf80492922175000000000000000000000000334752232938e060755e2cece44d1664ca61d873",
        "nonce": "0x20",
        "chainId": "0xaa36a7"
      },
      "additionalContracts": [],
      "isFixedGasLimit": false
    },
    {
      "hash": "0x58ccf17953817052bc470f0f858cbeab35808e40be782a6cfd643ec437b64077",
      "transactionType": "CALL",
      "contractName": null,
      "contractAddress": "0x8da33e7a4e06c7fa5a17929b367211426012ebd2",
      "function": "upgradeMarketImpl(address,string)",
      "arguments": [
        "0x13736647e93DaE2ee9c47b8c390a133E9788F76D",
        "\"upgradeMarketImpl\""
      ],
      "transaction": {
        "from": "0xe249dfd432b37872c40c0511cc5a3ae13906f77a",
        "to": "0x8da33e7a4e06c7fa5a17929b367211426012ebd2",
        "gas": "0xb7c7",
        "value": "0x0",
        "input": "0x3a3f246f00000000000000000000000013736647e93dae2ee9c47b8c390a133e9788f76d00000000000000000000000000000000000000000000000000000000000000400000000000000000000000000000000000000000000000000000000000000011757067726164654d61726b6574496d706c000000000000000000000000000000",
        "nonce": "0x21",
        "chainId": "0xaa36a7"
      },
      "additionalContracts": [],
      "isFixedGasLimit": false
    }
  ],
  "receipts": [
    {
      "status": "0x1",
      "cumulativeGasUsed": "0x3030a6",
      "logs": [],
      "logsBloom": "0x00000000000000000000000000000000000000000000000000000000000000000000000000000000000000000000000000000000000000000000000000000000000000000000000000000000000000000000000000000000000000000000000000000000000000000000000000000000000000000000000000000000000000000000000000000000000000000000000000000000000000000000000000000000000000000000000000000000000000000000000000000000000000000000000000000000000000000000000000000000000000000000000000000000000000000000000000000000000000000000000000000000000000000000000000000000",
      "type": "0x2",
      "transactionHash": "0xa2fa1357b284e63c517d86c3124e7300ba3089818af151fff912d87118f2fc54",
      "transactionIndex": "0x11",
      "blockHash": "0xa82cfb3cb722300cf0961deb26b7f23042f114f36036bb0d6ba1509329bd3710",
      "blockNumber": "0x594e62",
      "gasUsed": "0x7489c",
      "effectiveGasPrice": "0x3261f1175",
      "from": "0xe249dfd432b37872c40c0511cc5a3ae13906f77a",
      "to": null,
      "contractAddress": "0x13736647e93dae2ee9c47b8c390a133e9788f76d"
    },
    {
      "status": "0x1",
      "cumulativeGasUsed": "0x30b5b4",
      "logs": [
        {
          "address": "0x8da33e7a4e06c7fa5a17929b367211426012ebd2",
          "topics": [
            "0xbc7cd75a20ee27fd9adebab32041f755214dbc6bffa90cc0225b39da2e5c2d3b",
            "0x00000000000000000000000013736647e93dae2ee9c47b8c390a133e9788f76d"
          ],
          "data": "0x",
          "blockHash": "0xa82cfb3cb722300cf0961deb26b7f23042f114f36036bb0d6ba1509329bd3710",
          "blockNumber": "0x594e62",
          "transactionHash": "0x58ccf17953817052bc470f0f858cbeab35808e40be782a6cfd643ec437b64077",
          "transactionIndex": "0x12",
          "logIndex": "0x24",
          "removed": false
        }
      ],
      "logsBloom": "0x00000000000000000000000000000000400000000000000000000000000000000000040000000000000000000000000000000000000000000000000000000000000000020000000000000800000002000000000000000000000000000000000000000000000000000000000000000000000000000400000000000000000000000000000000000000000000000000000000000100000000000000000000000000000000000000000000000000000000000000000000000000400000000000000000000020000000000000000000000000000000000000000000000000000000000000000000000000000000000000000000000000000000000000000000000000",
      "type": "0x2",
      "transactionHash": "0x58ccf17953817052bc470f0f858cbeab35808e40be782a6cfd643ec437b64077",
      "transactionIndex": "0x12",
      "blockHash": "0xa82cfb3cb722300cf0961deb26b7f23042f114f36036bb0d6ba1509329bd3710",
      "blockNumber": "0x594e62",
      "gasUsed": "0x850e",
      "effectiveGasPrice": "0x3261f1175",
      "from": "0xe249dfd432b37872c40c0511cc5a3ae13906f77a",
      "to": "0x8da33e7a4e06c7fa5a17929b367211426012ebd2",
      "contractAddress": null
    }
  ],
  "libraries": [],
  "pending": [],
  "returns": {},
  "timestamp": 1715053923,
  "chain": 11155111,
  "commit": "07a7267"
}